{
  "contractName": "IlliApp",
  "abi": [
    {
      "anonymous": false,
      "inputs": [
        {
          "indexed": false,
          "name": "name",
          "type": "string"
        },
        {
          "indexed": false,
          "name": "addrOnEthNetwork",
          "type": "address"
        },
        {
          "indexed": false,
          "name": "addrOnSideChain",
          "type": "address"
        }
      ],
      "name": "providerAdded",
      "type": "event",
      "signature": "0xa2717c2eb5b5271c56f53531f8c80e53fe5885b37eb6f8f46f02c07d43cf5c1c"
    },
    {
      "constant": false,
      "inputs": [
        {
          "name": "_name",
          "type": "string"
        },
        {
          "name": "_addrOnEthNetwork",
          "type": "address"
        }
      ],
      "name": "addProviderName",
      "outputs": [],
      "payable": false,
      "stateMutability": "nonpayable",
      "type": "function",
      "signature": "0xe0c4f2f8"
    },
    {
      "constant": true,
      "inputs": [
        {
          "name": "_ethAddr",
          "type": "address"
        }
      ],
      "name": "getProviderName",
      "outputs": [
        {
          "name": "",
          "type": "string"
        }
      ],
      "payable": false,
      "stateMutability": "view",
      "type": "function",
      "signature": "0xe73bdd47"
    }
  ],
  "bytecode": "0x608060405234801561001057600080fd5b506104a2806100206000396000f30060806040526004361061004c576000357c0100000000000000000000000000000000000000000000000000000000900463ffffffff168063e0c4f2f814610051578063e73bdd47146100da575b600080fd5b34801561005d57600080fd5b506100d8600480360381019080803590602001908201803590602001908080601f0160208091040260200160405190810160405280939291908181526020018383808284378201915050505050509192919290803573ffffffffffffffffffffffffffffffffffffffff169060200190929190505050610196565b005b3480156100e657600080fd5b5061011b600480360381019080803573ffffffffffffffffffffffffffffffffffffffff1690602001909291905050506102f1565b6040518080602001828103825283818151815260200191508051906020019080838360005b8381101561015b578082015181840152602081019050610140565b50505050905090810190601f1680156101885780820380516001836020036101000a031916815260200191505b509250505060405180910390f35b816000808373ffffffffffffffffffffffffffffffffffffffff1673ffffffffffffffffffffffffffffffffffffffff16815260200190815260200160002090805190602001906101e89291906103d1565b507fa2717c2eb5b5271c56f53531f8c80e53fe5885b37eb6f8f46f02c07d43cf5c1c82823360405180806020018473ffffffffffffffffffffffffffffffffffffffff1673ffffffffffffffffffffffffffffffffffffffff1681526020018373ffffffffffffffffffffffffffffffffffffffff1673ffffffffffffffffffffffffffffffffffffffff168152602001828103825285818151815260200191508051906020019080838360005b838110156102b1578082015181840152602081019050610296565b50505050905090810190601f1680156102de5780820380516001836020036101000a031916815260200191505b5094505050505060405180910390a15050565b60606000808373ffffffffffffffffffffffffffffffffffffffff1673ffffffffffffffffffffffffffffffffffffffff1681526020019081526020016000208054600181600116156101000203166002900480601f0160208091040260200160405190810160405280929190818152602001828054600181600116156101000203166002900480156103c55780601f1061039a576101008083540402835291602001916103c5565b820191906000526020600020905b8154815290600101906020018083116103a857829003601f168201915b50505050509050919050565b828054600181600116156101000203166002900490600052602060002090601f016020900481019282601f1061041257805160ff1916838001178555610440565b82800160010185558215610440579182015b8281111561043f578251825591602001919060010190610424565b5b50905061044d9190610451565b5090565b61047391905b8082111561046f576000816000905550600101610457565b5090565b905600a165627a7a72305820291ffedbf7b7e0ccaed0e0f343817186cda7520f1b84edc5ef9af8af586b6dde0029",
  "source": "pragma solidity ^0.4.23;\r\n\r\ncontract IlliApp {\r\n  //address is eth(not sidechain) address\r\n  mapping (address => string) ethAddrToProviderName;\r\n\r\n  event providerAdded(string name, address addrOnEthNetwork, address addrOnSideChain);\r\n\r\n  function addProviderName(string memory _name, address _addrOnEthNetwork) public {\r\n    ethAddrToProviderName[_addrOnEthNetwork] = _name;\r\n    emit providerAdded(_name, _addrOnEthNetwork, msg.sender);\r\n  }\r\n\r\n  function getProviderName(address _ethAddr) public view returns (string memory) {\r\n    return ethAddrToProviderName[_ethAddr];\r\n  }\r\n}",
  "sourcePath": "C:/lib/2DEV/illi-schain/contracts/IlliApp.sol",
  "compiler": {
    "name": "solc",
    "version": "0.4.24+commit.e67f0147.Emscripten.clang"
  },
  "schemaVersion": "3.0.6",
  "updatedAt": "2019-04-17T16:33:40.486Z",
  "devdoc": {
    "methods": {}
  },
  "userdoc": {
    "methods": {}
  }
}