{
  "contractName": "IlliApp",
  "abi": [
    {
      "anonymous": false,
      "inputs": [
        {
          "indexed": false,
          "name": "name",
          "type": "string"
        },
        {
          "indexed": false,
          "name": "addrOnEthNetwork",
          "type": "address"
        },
        {
          "indexed": false,
          "name": "addrOnSideChain",
          "type": "address"
        }
      ],
      "name": "providerAdded",
      "type": "event"
    },
    {
      "constant": false,
      "inputs": [
        {
          "name": "_name",
          "type": "string"
        },
        {
          "name": "_addrOnEthNetwork",
          "type": "address"
        }
      ],
      "name": "addProviderName",
      "outputs": [],
      "payable": false,
      "stateMutability": "nonpayable",
      "type": "function"
    },
    {
      "constant": true,
      "inputs": [
        {
          "name": "_ethAddr",
          "type": "address"
        }
      ],
      "name": "getProviderName",
      "outputs": [
        {
          "name": "",
          "type": "string"
        }
      ],
      "payable": false,
      "stateMutability": "view",
      "type": "function"
    },
    {
      "constant": true,
      "inputs": [],
      "name": "getAllEthAdresses",
      "outputs": [
        {
          "name": "",
          "type": "address[]"
        }
      ],
      "payable": false,
      "stateMutability": "view",
      "type": "function"
    }
  ],
  "bytecode": "0x608060405234801561001057600080fd5b506105e0806100206000396000f300608060405260043610610057576000357c0100000000000000000000000000000000000000000000000000000000900463ffffffff168063a16ebcdc1461005c578063e0c4f2f8146100c8578063e73bdd4714610151575b600080fd5b34801561006857600080fd5b5061007161020d565b6040518080602001828103825283818151815260200191508051906020019060200280838360005b838110156100b4578082015181840152602081019050610099565b505050509050019250505060405180910390f35b3480156100d457600080fd5b5061014f600480360381019080803590602001908201803590602001908080601f0160208091040260200160405190810160405280939291908181526020018383808284378201915050505050509192919290803573ffffffffffffffffffffffffffffffffffffffff16906020019092919050505061029b565b005b34801561015d57600080fd5b50610192600480360381019080803573ffffffffffffffffffffffffffffffffffffffff16906020019092919050505061042f565b6040518080602001828103825283818151815260200191508051906020019080838360005b838110156101d25780820151818401526020810190506101b7565b50505050905090810190601f1680156101ff5780820380516001836020036101000a031916815260200191505b509250505060405180910390f35b6060600180548060200260200160405190810160405280929190818152602001828054801561029157602002820191906000526020600020905b8160009054906101000a900473ffffffffffffffffffffffffffffffffffffffff1673ffffffffffffffffffffffffffffffffffffffff1681526020019060010190808311610247575b5050505050905090565b816000808373ffffffffffffffffffffffffffffffffffffffff1673ffffffffffffffffffffffffffffffffffffffff16815260200190815260200160002090805190602001906102ed92919061050f565b5060016002548154811015156102ff57fe5b9060005260206000200160009054906101000a9050506002600081548092919060010191905055507fa2717c2eb5b5271c56f53531f8c80e53fe5885b37eb6f8f46f02c07d43cf5c1c82823360405180806020018473ffffffffffffffffffffffffffffffffffffffff1673ffffffffffffffffffffffffffffffffffffffff1681526020018373ffffffffffffffffffffffffffffffffffffffff1673ffffffffffffffffffffffffffffffffffffffff168152602001828103825285818151815260200191508051906020019080838360005b838110156103ef5780820151818401526020810190506103d4565b50505050905090810190601f16801561041c5780820380516001836020036101000a031916815260200191505b5094505050505060405180910390a15050565b60606000808373ffffffffffffffffffffffffffffffffffffffff1673ffffffffffffffffffffffffffffffffffffffff1681526020019081526020016000208054600181600116156101000203166002900480601f0160208091040260200160405190810160405280929190818152602001828054600181600116156101000203166002900480156105035780601f106104d857610100808354040283529160200191610503565b820191906000526020600020905b8154815290600101906020018083116104e657829003601f168201915b50505050509050919050565b828054600181600116156101000203166002900490600052602060002090601f016020900481019282601f1061055057805160ff191683800117855561057e565b8280016001018555821561057e579182015b8281111561057d578251825591602001919060010190610562565b5b50905061058b919061058f565b5090565b6105b191905b808211156105ad576000816000905550600101610595565b5090565b905600a165627a7a72305820c97f0b97b2b7d520e1b5598ff383f3693d663b875259d773dd6d47dd8e9d582d0029",
  "source": "pragma solidity ^0.4.23;\r\n\r\ncontract IlliApp {\r\n  //address is eth(not sidechain) address\r\n  mapping (address => string) ethAddrToProviderName;\r\n  address[] ethAddresses;\r\n  uint addrCounter;\r\n\r\n  event providerAdded(string name, address addrOnEthNetwork, address addrOnSideChain);\r\n\r\n  function addProviderName(string memory _name, address _addrOnEthNetwork) public {\r\n    ethAddrToProviderName[_addrOnEthNetwork] = _name;\r\n    ethAddresses[addrCounter];\r\n    addrCounter++;\r\n    emit providerAdded(_name, _addrOnEthNetwork, msg.sender);\r\n  }\r\n\r\n  function getProviderName(address _ethAddr) public view returns (string memory) {\r\n    return ethAddrToProviderName[_ethAddr];\r\n  }\r\n\r\n  function getAllEthAdresses()  public view returns (address[]){\r\n    return ethAddresses;\r\n  }\r\n}",
  "sourcePath": "C:/lib/2DEV/illi-schain/contracts/IlliApp.sol",
  "compiler": {
    "name": "solc",
    "version": "0.4.24+commit.e67f0147.Emscripten.clang"
  },
  "schemaVersion": "3.0.6",
  "updatedAt": "2019-04-17T17:10:08.454Z",
  "devdoc": {
    "methods": {}
  },
  "userdoc": {
    "methods": {}
  }
}